{
  "contractName": "MartianMarket",
  "abi": [
    {
      "inputs": [],
      "stateMutability": "nonpayable",
      "type": "constructor"
    },
    {
      "anonymous": false,
      "inputs": [
        {
          "indexed": true,
          "internalType": "address",
          "name": "owner",
          "type": "address"
        },
        {
          "indexed": true,
          "internalType": "address",
          "name": "approved",
          "type": "address"
        },
        {
          "indexed": true,
          "internalType": "uint256",
          "name": "tokenId",
          "type": "uint256"
        }
      ],
      "name": "Approval",
      "type": "event"
    },
    {
      "anonymous": false,
      "inputs": [
        {
          "indexed": true,
          "internalType": "address",
          "name": "owner",
          "type": "address"
        },
        {
          "indexed": true,
          "internalType": "address",
          "name": "operator",
          "type": "address"
        },
        {
          "indexed": false,
          "internalType": "bool",
          "name": "approved",
          "type": "bool"
        }
      ],
      "name": "ApprovalForAll",
      "type": "event"
    },
    {
      "anonymous": false,
      "inputs": [
        {
          "indexed": true,
          "internalType": "address",
          "name": "previousOwner",
          "type": "address"
        },
        {
          "indexed": true,
          "internalType": "address",
          "name": "newOwner",
          "type": "address"
        }
      ],
      "name": "OwnershipTransferred",
      "type": "event"
    },
    {
      "anonymous": false,
      "inputs": [
        {
          "indexed": true,
          "internalType": "address",
          "name": "from",
          "type": "address"
        },
        {
          "indexed": true,
          "internalType": "address",
          "name": "to",
          "type": "address"
        },
        {
          "indexed": true,
          "internalType": "uint256",
          "name": "tokenId",
          "type": "uint256"
        }
      ],
      "name": "Transfer",
      "type": "event"
    },
    {
      "inputs": [
        {
          "internalType": "address",
          "name": "to",
          "type": "address"
        },
        {
          "internalType": "uint256",
          "name": "tokenId",
          "type": "uint256"
        }
      ],
      "name": "approve",
      "outputs": [],
      "stateMutability": "nonpayable",
      "type": "function"
    },
    {
      "inputs": [
        {
          "internalType": "uint256",
          "name": "",
          "type": "uint256"
        }
      ],
      "name": "auctions",
      "outputs": [
        {
          "internalType": "contract MartianAuction",
          "name": "",
          "type": "address"
        }
      ],
      "stateMutability": "view",
      "type": "function",
      "constant": true
    },
    {
      "inputs": [
        {
          "internalType": "address",
          "name": "owner",
          "type": "address"
        }
      ],
      "name": "balanceOf",
      "outputs": [
        {
          "internalType": "uint256",
          "name": "",
          "type": "uint256"
        }
      ],
      "stateMutability": "view",
      "type": "function",
      "constant": true
    },
    {
      "inputs": [],
      "name": "baseURI",
      "outputs": [
        {
          "internalType": "string",
          "name": "",
          "type": "string"
        }
      ],
      "stateMutability": "view",
      "type": "function",
      "constant": true
    },
    {
      "inputs": [
        {
          "internalType": "uint256",
          "name": "tokenId",
          "type": "uint256"
        }
      ],
      "name": "getApproved",
      "outputs": [
        {
          "internalType": "address",
          "name": "",
          "type": "address"
        }
      ],
      "stateMutability": "view",
      "type": "function",
      "constant": true
    },
    {
      "inputs": [
        {
          "internalType": "address",
          "name": "owner",
          "type": "address"
        },
        {
          "internalType": "address",
          "name": "operator",
          "type": "address"
        }
      ],
      "name": "isApprovedForAll",
      "outputs": [
        {
          "internalType": "bool",
          "name": "",
          "type": "bool"
        }
      ],
      "stateMutability": "view",
      "type": "function",
      "constant": true
    },
    {
      "inputs": [],
      "name": "name",
      "outputs": [
        {
          "internalType": "string",
          "name": "",
          "type": "string"
        }
      ],
      "stateMutability": "view",
      "type": "function",
      "constant": true
    },
    {
      "inputs": [],
      "name": "owner",
      "outputs": [
        {
          "internalType": "address",
          "name": "",
          "type": "address"
        }
      ],
      "stateMutability": "view",
      "type": "function",
      "constant": true
    },
    {
      "inputs": [
        {
          "internalType": "uint256",
          "name": "tokenId",
          "type": "uint256"
        }
      ],
      "name": "ownerOf",
      "outputs": [
        {
          "internalType": "address",
          "name": "",
          "type": "address"
        }
      ],
      "stateMutability": "view",
      "type": "function",
      "constant": true
    },
    {
      "inputs": [],
      "name": "renounceOwnership",
      "outputs": [],
      "stateMutability": "nonpayable",
      "type": "function"
    },
    {
      "inputs": [
        {
          "internalType": "address",
          "name": "from",
          "type": "address"
        },
        {
          "internalType": "address",
          "name": "to",
          "type": "address"
        },
        {
          "internalType": "uint256",
          "name": "tokenId",
          "type": "uint256"
        }
      ],
      "name": "safeTransferFrom",
      "outputs": [],
      "stateMutability": "nonpayable",
      "type": "function"
    },
    {
      "inputs": [
        {
          "internalType": "address",
          "name": "from",
          "type": "address"
        },
        {
          "internalType": "address",
          "name": "to",
          "type": "address"
        },
        {
          "internalType": "uint256",
          "name": "tokenId",
          "type": "uint256"
        },
        {
          "internalType": "bytes",
          "name": "_data",
          "type": "bytes"
        }
      ],
      "name": "safeTransferFrom",
      "outputs": [],
      "stateMutability": "nonpayable",
      "type": "function"
    },
    {
      "inputs": [
        {
          "internalType": "address",
          "name": "operator",
          "type": "address"
        },
        {
          "internalType": "bool",
          "name": "approved",
          "type": "bool"
        }
      ],
      "name": "setApprovalForAll",
      "outputs": [],
      "stateMutability": "nonpayable",
      "type": "function"
    },
    {
      "inputs": [
        {
          "internalType": "bytes4",
          "name": "interfaceId",
          "type": "bytes4"
        }
      ],
      "name": "supportsInterface",
      "outputs": [
        {
          "internalType": "bool",
          "name": "",
          "type": "bool"
        }
      ],
      "stateMutability": "view",
      "type": "function",
      "constant": true
    },
    {
      "inputs": [],
      "name": "symbol",
      "outputs": [
        {
          "internalType": "string",
          "name": "",
          "type": "string"
        }
      ],
      "stateMutability": "view",
      "type": "function",
      "constant": true
    },
    {
      "inputs": [
        {
          "internalType": "uint256",
          "name": "index",
          "type": "uint256"
        }
      ],
      "name": "tokenByIndex",
      "outputs": [
        {
          "internalType": "uint256",
          "name": "",
          "type": "uint256"
        }
      ],
      "stateMutability": "view",
      "type": "function",
      "constant": true
    },
    {
      "inputs": [
        {
          "internalType": "address",
          "name": "owner",
          "type": "address"
        },
        {
          "internalType": "uint256",
          "name": "index",
          "type": "uint256"
        }
      ],
      "name": "tokenOfOwnerByIndex",
      "outputs": [
        {
          "internalType": "uint256",
          "name": "",
          "type": "uint256"
        }
      ],
      "stateMutability": "view",
      "type": "function",
      "constant": true
    },
    {
      "inputs": [
        {
          "internalType": "uint256",
          "name": "tokenId",
          "type": "uint256"
        }
      ],
      "name": "tokenURI",
      "outputs": [
        {
          "internalType": "string",
          "name": "",
          "type": "string"
        }
      ],
      "stateMutability": "view",
      "type": "function",
      "constant": true
    },
    {
      "inputs": [],
      "name": "totalSupply",
      "outputs": [
        {
          "internalType": "uint256",
          "name": "",
          "type": "uint256"
        }
      ],
      "stateMutability": "view",
      "type": "function",
      "constant": true
    },
    {
      "inputs": [
        {
          "internalType": "address",
          "name": "from",
          "type": "address"
        },
        {
          "internalType": "address",
          "name": "to",
          "type": "address"
        },
        {
          "internalType": "uint256",
          "name": "tokenId",
          "type": "uint256"
        }
      ],
      "name": "transferFrom",
      "outputs": [],
      "stateMutability": "nonpayable",
      "type": "function"
    },
    {
      "inputs": [
        {
          "internalType": "address",
          "name": "newOwner",
          "type": "address"
        }
      ],
      "name": "transferOwnership",
      "outputs": [],
      "stateMutability": "nonpayable",
      "type": "function"
    },
    {
      "inputs": [
        {
          "internalType": "uint256",
          "name": "token_id",
          "type": "uint256"
        }
      ],
      "name": "getAuction",
      "outputs": [
        {
          "internalType": "contract MartianAuction",
          "name": "",
          "type": "address"
        }
      ],
      "stateMutability": "view",
      "type": "function",
      "constant": true
    },
    {
      "inputs": [
        {
          "internalType": "uint256",
          "name": "token_id",
          "type": "uint256"
        }
      ],
      "name": "createAuction",
      "outputs": [],
      "stateMutability": "nonpayable",
      "type": "function"
    },
    {
      "inputs": [
        {
          "internalType": "string",
          "name": "uri",
          "type": "string"
        }
      ],
      "name": "registerLand",
      "outputs": [],
      "stateMutability": "payable",
      "type": "function",
      "payable": true
    },
    {
      "inputs": [
        {
          "internalType": "uint256",
          "name": "token_id",
          "type": "uint256"
        }
      ],
      "name": "endAuction",
      "outputs": [],
      "stateMutability": "nonpayable",
      "type": "function"
    },
    {
      "inputs": [],
      "name": "getOwner",
      "outputs": [
        {
          "internalType": "address",
          "name": "",
          "type": "address"
        }
      ],
      "stateMutability": "view",
      "type": "function",
      "constant": true
    },
    {
      "inputs": [
        {
          "internalType": "uint256",
          "name": "token_id",
          "type": "uint256"
        }
      ],
      "name": "auctionEnded",
      "outputs": [
        {
          "internalType": "bool",
          "name": "",
          "type": "bool"
        }
      ],
      "stateMutability": "view",
      "type": "function",
      "constant": true
    },
    {
      "inputs": [
        {
          "internalType": "uint256",
          "name": "token_id",
          "type": "uint256"
        }
      ],
      "name": "highestBid",
      "outputs": [
        {
          "internalType": "uint256",
          "name": "",
          "type": "uint256"
        }
      ],
      "stateMutability": "view",
      "type": "function",
      "constant": true
    },
    {
      "inputs": [
        {
          "internalType": "uint256",
          "name": "token_id",
          "type": "uint256"
        },
        {
          "internalType": "address",
          "name": "sender",
          "type": "address"
        }
      ],
      "name": "pendingReturn",
      "outputs": [
        {
          "internalType": "uint256",
          "name": "",
          "type": "uint256"
        }
      ],
      "stateMutability": "view",
      "type": "function",
      "constant": true
    },
    {
      "inputs": [
        {
          "internalType": "uint256",
          "name": "token_id",
          "type": "uint256"
        }
      ],
      "name": "bid",
      "outputs": [],
      "stateMutability": "payable",
      "type": "function",
      "payable": true
    }
  ],
  "bytecode": "0x6080604052620000146200021960201b60201c565b600b60006101000a81548173ffffffffffffffffffffffffffffffffffffffff021916908373ffffffffffffffffffffffffffffffffffffffff1602179055503480156200006157600080fd5b506040518060400160405280600d81526020017f4d61727469616e4d61726b6574000000000000000000000000000000000000008152506040518060400160405280600481526020017f4d41525300000000000000000000000000000000000000000000000000000000815250620000e66301ffc9a760e01b6200024360201b60201c565b8160069080519060200190620000fe92919062000354565b5080600790805190602001906200011792919062000354565b50620001306380ac58cd60e01b6200024360201b60201c565b62000148635b5e139f60e01b6200024360201b60201c565b6200016063780e9d6360e01b6200024360201b60201c565b50506000620001746200034c60201b60201c565b905080600a60006101000a81548173ffffffffffffffffffffffffffffffffffffffff021916908373ffffffffffffffffffffffffffffffffffffffff1602179055508073ffffffffffffffffffffffffffffffffffffffff16600073ffffffffffffffffffffffffffffffffffffffff167f8be0079c531659141344cd1fd0a4f28419497f9722a3daafe3b4186f6b6457e060405160405180910390a350620003fa565b6000600a60009054906101000a900473ffffffffffffffffffffffffffffffffffffffff16905090565b63ffffffff60e01b817bffffffffffffffffffffffffffffffffffffffffffffffffffffffff19161415620002e0576040517f08c379a000000000000000000000000000000000000000000000000000000000815260040180806020018281038252601c8152602001807f4552433136353a20696e76616c696420696e746572666163652069640000000081525060200191505060405180910390fd5b6001600080837bffffffffffffffffffffffffffffffffffffffffffffffffffffffff19167bffffffffffffffffffffffffffffffffffffffffffffffffffffffff1916815260200190815260200160002060006101000a81548160ff02191690831515021790555050565b600033905090565b828054600181600116156101000203166002900490600052602060002090601f016020900481019282601f106200039757805160ff1916838001178555620003c8565b82800160010185558215620003c8579182015b82811115620003c7578251825591602001919060010190620003aa565b5b509050620003d79190620003db565b5090565b5b80821115620003f6576000816000905550600101620003dc565b5090565b6145cc806200040a6000396000f3fe6080604052600436106101cd5760003560e01c806378bd7935116100f7578063b1dc7b8b11610095578063d5563f3111610064578063d5563f3114610c59578063e985e9c514610c94578063f2fde38b14610d1b578063fbed216b14610d6c576101cd565b8063b1dc7b8b146109e9578063b88d4fde14610a58578063b9a2de3a14610b6a578063c87b56dd14610ba5576101cd565b806395d89b41116100d157806395d89b411461085c5780639e712387146108ec578063a22cb4651461093d578063b14c63c51461099a576101cd565b806378bd793514610775578063893d20e8146107da5780638da5cb5b1461081b576101cd565b806342842e0e1161016f5780636352211e1161013e5780636352211e146106045780636c0360eb1461066957806370a08231146106f9578063715018a61461075e576101cd565b806342842e0e146104a7578063454a2ab3146105225780634f6ccce714610550578063571a26a01461059f576101cd565b8063095ea7b3116101ab578063095ea7b31461033757806318160ddd1461039257806323b872dd146103bd5780632f745c5914610438576101cd565b806301ffc9a7146101d257806306fdde0314610242578063081812fc146102d2575b600080fd5b3480156101de57600080fd5b5061022a600480360360208110156101f557600080fd5b8101908080357bffffffffffffffffffffffffffffffffffffffffffffffffffffffff19169060200190929190505050610e27565b60405180821515815260200191505060405180910390f35b34801561024e57600080fd5b50610257610e8e565b6040518080602001828103825283818151815260200191508051906020019080838360005b8381101561029757808201518184015260208101905061027c565b50505050905090810190601f1680156102c45780820380516001836020036101000a031916815260200191505b509250505060405180910390f35b3480156102de57600080fd5b5061030b600480360360208110156102f557600080fd5b8101908080359060200190929190505050610f30565b604051808273ffffffffffffffffffffffffffffffffffffffff16815260200191505060405180910390f35b34801561034357600080fd5b506103906004803603604081101561035a57600080fd5b81019080803573ffffffffffffffffffffffffffffffffffffffff16906020019092919080359060200190929190505050610fcb565b005b34801561039e57600080fd5b506103a761110f565b6040518082815260200191505060405180910390f35b3480156103c957600080fd5b50610436600480360360608110156103e057600080fd5b81019080803573ffffffffffffffffffffffffffffffffffffffff169060200190929190803573ffffffffffffffffffffffffffffffffffffffff16906020019092919080359060200190929190505050611120565b005b34801561044457600080fd5b506104916004803603604081101561045b57600080fd5b81019080803573ffffffffffffffffffffffffffffffffffffffff16906020019092919080359060200190929190505050611196565b6040518082815260200191505060405180910390f35b3480156104b357600080fd5b50610520600480360360608110156104ca57600080fd5b81019080803573ffffffffffffffffffffffffffffffffffffffff169060200190929190803573ffffffffffffffffffffffffffffffffffffffff169060200190929190803590602001909291905050506111f1565b005b61054e6004803603602081101561053857600080fd5b8101908080359060200190929190505050611211565b005b34801561055c57600080fd5b506105896004803603602081101561057357600080fd5b810190808035906020019092919050505061131b565b6040518082815260200191505060405180910390f35b3480156105ab57600080fd5b506105d8600480360360208110156105c257600080fd5b810190808035906020019092919050505061133e565b604051808273ffffffffffffffffffffffffffffffffffffffff16815260200191505060405180910390f35b34801561061057600080fd5b5061063d6004803603602081101561062757600080fd5b8101908080359060200190929190505050611371565b604051808273ffffffffffffffffffffffffffffffffffffffff16815260200191505060405180910390f35b34801561067557600080fd5b5061067e6113a8565b6040518080602001828103825283818151815260200191508051906020019080838360005b838110156106be5780820151818401526020810190506106a3565b50505050905090810190601f1680156106eb5780820380516001836020036101000a031916815260200191505b509250505060405180910390f35b34801561070557600080fd5b506107486004803603602081101561071c57600080fd5b81019080803573ffffffffffffffffffffffffffffffffffffffff16906020019092919050505061144a565b6040518082815260200191505060405180910390f35b34801561076a57600080fd5b5061077361151f565b005b34801561078157600080fd5b506107ae6004803603602081101561079857600080fd5b810190808035906020019092919050505061168f565b604051808273ffffffffffffffffffffffffffffffffffffffff16815260200191505060405180910390f35b3480156107e657600080fd5b506107ef6116cc565b604051808273ffffffffffffffffffffffffffffffffffffffff16815260200191505060405180910390f35b34801561082757600080fd5b506108306116db565b604051808273ffffffffffffffffffffffffffffffffffffffff16815260200191505060405180910390f35b34801561086857600080fd5b50610871611705565b6040518080602001828103825283818151815260200191508051906020019080838360005b838110156108b1578082015181840152602081019050610896565b50505050905090810190601f1680156108de5780820380516001836020036101000a031916815260200191505b509250505060405180910390f35b3480156108f857600080fd5b506109256004803603602081101561090f57600080fd5b81019080803590602001909291905050506117a7565b60405180821515815260200191505060405180910390f35b34801561094957600080fd5b506109986004803603604081101561096057600080fd5b81019080803573ffffffffffffffffffffffffffffffffffffffff169060200190929190803515159060200190929190505050611839565b005b3480156109a657600080fd5b506109d3600480360360208110156109bd57600080fd5b81019080803590602001909291905050506119ef565b6040518082815260200191505060405180910390f35b3480156109f557600080fd5b50610a4260048036036040811015610a0c57600080fd5b8101908080359060200190929190803573ffffffffffffffffffffffffffffffffffffffff169060200190929190505050611afe565b6040518082815260200191505060405180910390f35b348015610a6457600080fd5b50610b6860048036036080811015610a7b57600080fd5b81019080803573ffffffffffffffffffffffffffffffffffffffff169060200190929190803573ffffffffffffffffffffffffffffffffffffffff1690602001909291908035906020019092919080359060200190640100000000811115610ae257600080fd5b820183602082011115610af457600080fd5b80359060200191846001830284011164010000000083111715610b1657600080fd5b91908080601f016020809104026020016040519081016040528093929190818152602001838380828437600081840152601f19601f820116905080830192505050505050509192919290505050611c2f565b005b348015610b7657600080fd5b50610ba360048036036020811015610b8d57600080fd5b8101908080359060200190929190505050611ca7565b005b348015610bb157600080fd5b50610bde60048036036020811015610bc857600080fd5b8101908080359060200190929190505050611f01565b6040518080602001828103825283818151815260200191508051906020019080838360005b83811015610c1e578082015181840152602081019050610c03565b50505050905090810190601f168015610c4b5780820380516001836020036101000a031916815260200191505b509250505060405180910390f35b348015610c6557600080fd5b50610c9260048036036020811015610c7c57600080fd5b81019080803590602001909291905050506121d2565b005b348015610ca057600080fd5b50610d0360048036036040811015610cb757600080fd5b81019080803573ffffffffffffffffffffffffffffffffffffffff169060200190929190803573ffffffffffffffffffffffffffffffffffffffff16906020019092919050505061231f565b60405180821515815260200191505060405180910390f35b348015610d2757600080fd5b50610d6a60048036036020811015610d3e57600080fd5b81019080803573ffffffffffffffffffffffffffffffffffffffff1690602001909291905050506123b3565b005b610e2560048036036020811015610d8257600080fd5b8101908080359060200190640100000000811115610d9f57600080fd5b820183602082011115610db157600080fd5b80359060200191846001830284011164010000000083111715610dd357600080fd5b91908080601f016020809104026020016040519081016040528093929190818152602001838380828437600081840152601f19601f8201169050808301925050505050505091929192905050506125a8565b005b6000806000837bffffffffffffffffffffffffffffffffffffffffffffffffffffffff19167bffffffffffffffffffffffffffffffffffffffffffffffffffffffff1916815260200190815260200160002060009054906101000a900460ff169050919050565b606060068054600181600116156101000203166002900480601f016020809104026020016040519081016040528092919081815260200182805460018160011615610100020316600290048015610f265780601f10610efb57610100808354040283529160200191610f26565b820191906000526020600020905b815481529060010190602001808311610f0957829003601f168201915b5050505050905090565b6000610f3b82612684565b610f90576040517f08c379a000000000000000000000000000000000000000000000000000000000815260040180806020018281038252602c815260200180614495602c913960400191505060405180910390fd5b6004600083815260200190815260200160002060009054906101000a900473ffffffffffffffffffffffffffffffffffffffff169050919050565b6000610fd682611371565b90508073ffffffffffffffffffffffffffffffffffffffff168373ffffffffffffffffffffffffffffffffffffffff16141561105d576040517f08c379a00000000000000000000000000000000000000000000000000000000081526004018080602001828103825260218152602001806145456021913960400191505060405180910390fd5b8073ffffffffffffffffffffffffffffffffffffffff1661107c6126a1565b73ffffffffffffffffffffffffffffffffffffffff1614806110ab57506110aa816110a56126a1565b61231f565b5b611100576040517f08c379a00000000000000000000000000000000000000000000000000000000081526004018080602001828103825260388152602001806143e86038913960400191505060405180910390fd5b61110a83836126a9565b505050565b600061111b6002612762565b905090565b61113161112b6126a1565b82612777565b611186576040517f08c379a00000000000000000000000000000000000000000000000000000000081526004018080602001828103825260318152602001806145666031913960400191505060405180910390fd5b61119183838361286b565b505050565b60006111e982600160008673ffffffffffffffffffffffffffffffffffffffff1673ffffffffffffffffffffffffffffffffffffffff168152602001908152602001600020612aae90919063ffffffff16565b905092915050565b61120c83838360405180602001604052806000815250611c2f565b505050565b8061121b81612684565b61128d576040517f08c379a00000000000000000000000000000000000000000000000000000000081526004018080602001828103825260148152602001807f4c616e64206e6f7420726567697374657265642100000000000000000000000081525060200191505060405180910390fd5b6112968261168f565b73ffffffffffffffffffffffffffffffffffffffff16639cf5453d34336040518363ffffffff1660e01b8152600401808273ffffffffffffffffffffffffffffffffffffffff1681526020019150506000604051808303818588803b1580156112fe57600080fd5b505af1158015611312573d6000803e3d6000fd5b50505050505050565b600080611332836002612ac890919063ffffffff16565b50905080915050919050565b600c6020528060005260406000206000915054906101000a900473ffffffffffffffffffffffffffffffffffffffff1681565b60006113a18260405180606001604052806029815260200161444a602991396002612af49092919063ffffffff16565b9050919050565b606060098054600181600116156101000203166002900480601f0160208091040260200160405190810160405280929190818152602001828054600181600116156101000203166002900480156114405780601f1061141557610100808354040283529160200191611440565b820191906000526020600020905b81548152906001019060200180831161142357829003601f168201915b5050505050905090565b60008073ffffffffffffffffffffffffffffffffffffffff168273ffffffffffffffffffffffffffffffffffffffff1614156114d1576040517f08c379a000000000000000000000000000000000000000000000000000000000815260040180806020018281038252602a815260200180614420602a913960400191505060405180910390fd5b611518600160008473ffffffffffffffffffffffffffffffffffffffff1673ffffffffffffffffffffffffffffffffffffffff168152602001908152602001600020612b13565b9050919050565b6115276126a1565b73ffffffffffffffffffffffffffffffffffffffff166115456116db565b73ffffffffffffffffffffffffffffffffffffffff16146115ce576040517f08c379a00000000000000000000000000000000000000000000000000000000081526004018080602001828103825260208152602001807f4f776e61626c653a2063616c6c6572206973206e6f7420746865206f776e657281525060200191505060405180910390fd5b600073ffffffffffffffffffffffffffffffffffffffff16600a60009054906101000a900473ffffffffffffffffffffffffffffffffffffffff1673ffffffffffffffffffffffffffffffffffffffff167f8be0079c531659141344cd1fd0a4f28419497f9722a3daafe3b4186f6b6457e060405160405180910390a36000600a60006101000a81548173ffffffffffffffffffffffffffffffffffffffff021916908373ffffffffffffffffffffffffffffffffffffffff160217905550565b6000600c600083815260200190815260200160002060009054906101000a900473ffffffffffffffffffffffffffffffffffffffff169050919050565b60006116d66116db565b905090565b6000600a60009054906101000a900473ffffffffffffffffffffffffffffffffffffffff16905090565b606060078054600181600116156101000203166002900480601f01602080910402602001604051908101604052809291908181526020018280546001816001161561010002031660029004801561179d5780601f106117725761010080835404028352916020019161179d565b820191906000526020600020905b81548152906001019060200180831161178057829003601f168201915b5050505050905090565b60006117b28261168f565b73ffffffffffffffffffffffffffffffffffffffff166312fa6feb6040518163ffffffff1660e01b815260040160206040518083038186803b1580156117f757600080fd5b505afa15801561180b573d6000803e3d6000fd5b505050506040513d602081101561182157600080fd5b81019080805190602001909291905050509050919050565b6118416126a1565b73ffffffffffffffffffffffffffffffffffffffff168273ffffffffffffffffffffffffffffffffffffffff1614156118e2576040517f08c379a00000000000000000000000000000000000000000000000000000000081526004018080602001828103825260198152602001807f4552433732313a20617070726f766520746f2063616c6c65720000000000000081525060200191505060405180910390fd5b80600560006118ef6126a1565b73ffffffffffffffffffffffffffffffffffffffff1673ffffffffffffffffffffffffffffffffffffffff16815260200190815260200160002060008473ffffffffffffffffffffffffffffffffffffffff1673ffffffffffffffffffffffffffffffffffffffff16815260200190815260200160002060006101000a81548160ff0219169083151502179055508173ffffffffffffffffffffffffffffffffffffffff1661199c6126a1565b73ffffffffffffffffffffffffffffffffffffffff167f17307eab39ab6107e8899845ad3d59bd9653f200f220920489ca2b5937696c318360405180821515815260200191505060405180910390a35050565b6000816119fb81612684565b611a6d576040517f08c379a00000000000000000000000000000000000000000000000000000000081526004018080602001828103825260148152602001807f4c616e64206e6f7420726567697374657265642100000000000000000000000081525060200191505060405180910390fd5b611a768361168f565b73ffffffffffffffffffffffffffffffffffffffff1663d57bde796040518163ffffffff1660e01b815260040160206040518083038186803b158015611abb57600080fd5b505afa158015611acf573d6000803e3d6000fd5b505050506040513d6020811015611ae557600080fd5b8101908080519060200190929190505050915050919050565b600082611b0a81612684565b611b7c576040517f08c379a00000000000000000000000000000000000000000000000000000000081526004018080602001828103825260148152602001807f4c616e64206e6f7420726567697374657265642100000000000000000000000081525060200191505060405180910390fd5b611b858461168f565b73ffffffffffffffffffffffffffffffffffffffff1663c937f9fd846040518263ffffffff1660e01b8152600401808273ffffffffffffffffffffffffffffffffffffffff16815260200191505060206040518083038186803b158015611beb57600080fd5b505afa158015611bff573d6000803e3d6000fd5b505050506040513d6020811015611c1557600080fd5b810190808051906020019092919050505091505092915050565b611c40611c3a6126a1565b83612777565b611c95576040517f08c379a00000000000000000000000000000000000000000000000000000000081526004018080602001828103825260318152602001806145666031913960400191505060405180910390fd5b611ca184848484612b28565b50505050565b611caf6126a1565b73ffffffffffffffffffffffffffffffffffffffff16611ccd6116db565b73ffffffffffffffffffffffffffffffffffffffff1614611d56576040517f08c379a00000000000000000000000000000000000000000000000000000000081526004018080602001828103825260208152602001807f4f776e61626c653a2063616c6c6572206973206e6f7420746865206f776e657281525060200191505060405180910390fd5b80611d6081612684565b611dd2576040517f08c379a00000000000000000000000000000000000000000000000000000000081526004018080602001828103825260148152602001807f4c616e64206e6f7420726567697374657265642100000000000000000000000081525060200191505060405180910390fd5b6000600c600084815260200190815260200160002060009054906101000a900473ffffffffffffffffffffffffffffffffffffffff1690508073ffffffffffffffffffffffffffffffffffffffff16632a24f46c6040518163ffffffff1660e01b8152600401600060405180830381600087803b158015611e5257600080fd5b505af1158015611e66573d6000803e3d6000fd5b50505050611efc611e756116db565b8273ffffffffffffffffffffffffffffffffffffffff166391f901576040518163ffffffff1660e01b815260040160206040518083038186803b158015611ebb57600080fd5b505afa158015611ecf573d6000803e3d6000fd5b505050506040513d6020811015611ee557600080fd5b8101908080519060200190929190505050856111f1565b505050565b6060611f0c82612684565b611f61576040517f08c379a000000000000000000000000000000000000000000000000000000000815260040180806020018281038252602f815260200180614516602f913960400191505060405180910390fd5b6060600860008481526020019081526020016000208054600181600116156101000203166002900480601f01602080910402602001604051908101604052809291908181526020018280546001816001161561010002031660029004801561200a5780601f10611fdf5761010080835404028352916020019161200a565b820191906000526020600020905b815481529060010190602001808311611fed57829003601f168201915b50505050509050606061201b6113a8565b90506000815114156120315781925050506121cd565b6000825111156121025780826040516020018083805190602001908083835b602083106120735780518252602082019150602081019050602083039250612050565b6001836020036101000a03801982511681845116808217855250505050505090500182805190602001908083835b602083106120c457805182526020820191506020810190506020830392506120a1565b6001836020036101000a03801982511681845116808217855250505050505090500192505050604051602081830303815290604052925050506121cd565b8061210c85612b9a565b6040516020018083805190602001908083835b60208310612142578051825260208201915060208101905060208303925061211f565b6001836020036101000a03801982511681845116808217855250505050505090500182805190602001908083835b602083106121935780518252602082019150602081019050602083039250612170565b6001836020036101000a03801982511681845116808217855250505050505090500192505050604051602081830303815290604052925050505b919050565b6121da6126a1565b73ffffffffffffffffffffffffffffffffffffffff166121f86116db565b73ffffffffffffffffffffffffffffffffffffffff1614612281576040517f08c379a00000000000000000000000000000000000000000000000000000000081526004018080602001828103825260208152602001807f4f776e61626c653a2063616c6c6572206973206e6f7420746865206f776e657281525060200191505060405180910390fd5b3360405161228e9061394e565b808273ffffffffffffffffffffffffffffffffffffffff168152602001915050604051809103906000f0801580156122ca573d6000803e3d6000fd5b50600c600083815260200190815260200160002060006101000a81548173ffffffffffffffffffffffffffffffffffffffff021916908373ffffffffffffffffffffffffffffffffffffffff16021790555050565b6000600560008473ffffffffffffffffffffffffffffffffffffffff1673ffffffffffffffffffffffffffffffffffffffff16815260200190815260200160002060008373ffffffffffffffffffffffffffffffffffffffff1673ffffffffffffffffffffffffffffffffffffffff16815260200190815260200160002060009054906101000a900460ff16905092915050565b6123bb6126a1565b73ffffffffffffffffffffffffffffffffffffffff166123d96116db565b73ffffffffffffffffffffffffffffffffffffffff1614612462576040517f08c379a00000000000000000000000000000000000000000000000000000000081526004018080602001828103825260208152602001807f4f776e61626c653a2063616c6c6572206973206e6f7420746865206f776e657281525060200191505060405180910390fd5b600073ffffffffffffffffffffffffffffffffffffffff168173ffffffffffffffffffffffffffffffffffffffff1614156124e8576040517f08c379a000000000000000000000000000000000000000000000000000000000815260040180806020018281038252602681526020018061434c6026913960400191505060405180910390fd5b8073ffffffffffffffffffffffffffffffffffffffff16600a60009054906101000a900473ffffffffffffffffffffffffffffffffffffffff1673ffffffffffffffffffffffffffffffffffffffff167f8be0079c531659141344cd1fd0a4f28419497f9722a3daafe3b4186f6b6457e060405160405180910390a380600a60006101000a81548173ffffffffffffffffffffffffffffffffffffffff021916908373ffffffffffffffffffffffffffffffffffffffff16021790555050565b6125b06126a1565b73ffffffffffffffffffffffffffffffffffffffff166125ce6116db565b73ffffffffffffffffffffffffffffffffffffffff1614612657576040517f08c379a00000000000000000000000000000000000000000000000000000000081526004018080602001828103825260208152602001807f4f776e61626c653a2063616c6c6572206973206e6f7420746865206f776e657281525060200191505060405180910390fd5b600061266161110f565b905061266d3382612ce1565b6126778183612ed5565b612680816121d2565b5050565b600061269a826002612f5f90919063ffffffff16565b9050919050565b600033905090565b816004600083815260200190815260200160002060006101000a81548173ffffffffffffffffffffffffffffffffffffffff021916908373ffffffffffffffffffffffffffffffffffffffff160217905550808273ffffffffffffffffffffffffffffffffffffffff1661271c83611371565b73ffffffffffffffffffffffffffffffffffffffff167f8c5be1e5ebec7d5bd14f71427d1e84f3dd0314c0f7b2291e5b200ac8c7c3b92560405160405180910390a45050565b600061277082600001612f79565b9050919050565b600061278282612684565b6127d7576040517f08c379a000000000000000000000000000000000000000000000000000000000815260040180806020018281038252602c8152602001806143bc602c913960400191505060405180910390fd5b60006127e283611371565b90508073ffffffffffffffffffffffffffffffffffffffff168473ffffffffffffffffffffffffffffffffffffffff16148061285157508373ffffffffffffffffffffffffffffffffffffffff1661283984610f30565b73ffffffffffffffffffffffffffffffffffffffff16145b806128625750612861818561231f565b5b91505092915050565b8273ffffffffffffffffffffffffffffffffffffffff1661288b82611371565b73ffffffffffffffffffffffffffffffffffffffff16146128f7576040517f08c379a00000000000000000000000000000000000000000000000000000000081526004018080602001828103825260298152602001806144ed6029913960400191505060405180910390fd5b600073ffffffffffffffffffffffffffffffffffffffff168273ffffffffffffffffffffffffffffffffffffffff16141561297d576040517f08c379a00000000000000000000000000000000000000000000000000000000081526004018080602001828103825260248152602001806143726024913960400191505060405180910390fd5b612988838383612f8a565b6129936000826126a9565b6129e481600160008673ffffffffffffffffffffffffffffffffffffffff1673ffffffffffffffffffffffffffffffffffffffff168152602001908152602001600020612f8f90919063ffffffff16565b50612a3681600160008573ffffffffffffffffffffffffffffffffffffffff1673ffffffffffffffffffffffffffffffffffffffff168152602001908152602001600020612fa990919063ffffffff16565b50612a4d81836002612fc39092919063ffffffff16565b50808273ffffffffffffffffffffffffffffffffffffffff168473ffffffffffffffffffffffffffffffffffffffff167fddf252ad1be2c89b69c2b068fc378daa952ba7f163c4a11628f55a4df523b3ef60405160405180910390a4505050565b6000612abd8360000183612ff8565b60001c905092915050565b600080600080612adb866000018661307b565b915091508160001c8160001c9350935050509250929050565b6000612b07846000018460001b84613114565b60001c90509392505050565b6000612b218260000161320a565b9050919050565b612b3384848461286b565b612b3f8484848461321b565b612b94576040517f08c379a000000000000000000000000000000000000000000000000000000000815260040180806020018281038252603281526020018061431a6032913960400191505060405180910390fd5b50505050565b60606000821415612be2576040518060400160405280600181526020017f30000000000000000000000000000000000000000000000000000000000000008152509050612cdc565b600082905060005b60008214612c0c578080600101915050600a8281612c0457fe5b049150612bea565b60608167ffffffffffffffff81118015612c2557600080fd5b506040519080825280601f01601f191660200182016040528015612c585781602001600182028036833780820191505090505b50905060006001830390508593505b60008414612cd457600a8481612c7957fe5b0660300160f81b82828060019003935081518110612c9357fe5b60200101907effffffffffffffffffffffffffffffffffffffffffffffffffffffffffffff1916908160001a905350600a8481612ccc57fe5b049350612c67565b819450505050505b919050565b600073ffffffffffffffffffffffffffffffffffffffff168273ffffffffffffffffffffffffffffffffffffffff161415612d84576040517f08c379a00000000000000000000000000000000000000000000000000000000081526004018080602001828103825260208152602001807f4552433732313a206d696e7420746f20746865207a65726f206164647265737381525060200191505060405180910390fd5b612d8d81612684565b15612e00576040517f08c379a000000000000000000000000000000000000000000000000000000000815260040180806020018281038252601c8152602001807f4552433732313a20746f6b656e20616c7265616479206d696e7465640000000081525060200191505060405180910390fd5b612e0c60008383612f8a565b612e5d81600160008573ffffffffffffffffffffffffffffffffffffffff1673ffffffffffffffffffffffffffffffffffffffff168152602001908152602001600020612fa990919063ffffffff16565b50612e7481836002612fc39092919063ffffffff16565b50808273ffffffffffffffffffffffffffffffffffffffff16600073ffffffffffffffffffffffffffffffffffffffff167fddf252ad1be2c89b69c2b068fc378daa952ba7f163c4a11628f55a4df523b3ef60405160405180910390a45050565b612ede82612684565b612f33576040517f08c379a000000000000000000000000000000000000000000000000000000000815260040180806020018281038252602c8152602001806144c1602c913960400191505060405180910390fd5b80600860008481526020019081526020016000209080519060200190612f5a92919061395b565b505050565b6000612f71836000018360001b613434565b905092915050565b600081600001805490509050919050565b505050565b6000612fa1836000018360001b613457565b905092915050565b6000612fbb836000018360001b61353f565b905092915050565b6000612fef846000018460001b8473ffffffffffffffffffffffffffffffffffffffff1660001b6135af565b90509392505050565b600081836000018054905011613059576040517f08c379a00000000000000000000000000000000000000000000000000000000081526004018080602001828103825260228152602001806142f86022913960400191505060405180910390fd5b82600001828154811061306857fe5b9060005260206000200154905092915050565b600080828460000180549050116130dd576040517f08c379a00000000000000000000000000000000000000000000000000000000081526004018080602001828103825260228152602001806144736022913960400191505060405180910390fd5b60008460000184815481106130ee57fe5b906000526020600020906002020190508060000154816001015492509250509250929050565b600080846001016000858152602001908152602001600020549050600081141583906131db576040517f08c379a00000000000000000000000000000000000000000000000000000000081526004018080602001828103825283818151815260200191508051906020019080838360005b838110156131a0578082015181840152602081019050613185565b50505050905090810190601f1680156131cd5780820380516001836020036101000a031916815260200191505b509250505060405180910390fd5b508460000160018203815481106131ee57fe5b9060005260206000209060020201600101549150509392505050565b600081600001805490509050919050565b600061323c8473ffffffffffffffffffffffffffffffffffffffff1661368b565b613249576001905061342c565b60606133b363150b7a0260e01b61325e6126a1565b888787604051602401808573ffffffffffffffffffffffffffffffffffffffff1681526020018473ffffffffffffffffffffffffffffffffffffffff16815260200183815260200180602001828103825283818151815260200191508051906020019080838360005b838110156132e25780820151818401526020810190506132c7565b50505050905090810190601f16801561330f5780820380516001836020036101000a031916815260200191505b5095505050505050604051602081830303815290604052907bffffffffffffffffffffffffffffffffffffffffffffffffffffffff19166020820180517bffffffffffffffffffffffffffffffffffffffffffffffffffffffff838183161783525050505060405180606001604052806032815260200161431a603291398773ffffffffffffffffffffffffffffffffffffffff1661369e9092919063ffffffff16565b905060008180602001905160208110156133cc57600080fd5b8101908080519060200190929190505050905063150b7a0260e01b7bffffffffffffffffffffffffffffffffffffffffffffffffffffffff1916817bffffffffffffffffffffffffffffffffffffffffffffffffffffffff191614925050505b949350505050565b600080836001016000848152602001908152602001600020541415905092915050565b6000808360010160008481526020019081526020016000205490506000811461353357600060018203905060006001866000018054905003905060008660000182815481106134a257fe5b90600052602060002001549050808760000184815481106134bf57fe5b90600052602060002001819055506001830187600101600083815260200190815260200160002081905550866000018054806134f757fe5b60019003818190600052602060002001600090559055866001016000878152602001908152602001600020600090556001945050505050613539565b60009150505b92915050565b600061354b83836136b6565b6135a45782600001829080600181540180825580915050600190039060005260206000200160009091909190915055826000018054905083600101600084815260200190815260200160002081905550600190506135a9565b600090505b92915050565b600080846001016000858152602001908152602001600020549050600081141561365657846000016040518060400160405280868152602001858152509080600181540180825580915050600190039060005260206000209060020201600090919091909150600082015181600001556020820151816001015550508460000180549050856001016000868152602001908152602001600020819055506001915050613684565b8285600001600183038154811061366957fe5b90600052602060002090600202016001018190555060009150505b9392505050565b600080823b905060008111915050919050565b60606136ad84846000856136d9565b90509392505050565b600080836001016000848152602001908152602001600020541415905092915050565b606082471015613734576040517f08c379a00000000000000000000000000000000000000000000000000000000081526004018080602001828103825260268152602001806143966026913960400191505060405180910390fd5b61373d8561368b565b6137af576040517f08c379a000000000000000000000000000000000000000000000000000000000815260040180806020018281038252601d8152602001807f416464726573733a2063616c6c20746f206e6f6e2d636f6e747261637400000081525060200191505060405180910390fd5b600060608673ffffffffffffffffffffffffffffffffffffffff1685876040518082805190602001908083835b602083106137ff57805182526020820191506020810190506020830392506137dc565b6001836020036101000a03801982511681845116808217855250505050505090500191505060006040518083038185875af1925050503d8060008114613861576040519150601f19603f3d011682016040523d82523d6000602084013e613866565b606091505b5091509150613876828286613882565b92505050949350505050565b6060831561389257829050613947565b6000835111156138a55782518084602001fd5b816040517f08c379a00000000000000000000000000000000000000000000000000000000081526004018080602001828103825283818151815260200191508051906020019080838360005b8381101561390c5780820151818401526020810190506138f1565b50505050905090810190601f1680156139395780820380516001836020036101000a031916815260200191505b509250505060405180910390fd5b9392505050565b6108ff806139f983390190565b828054600181600116156101000203166002900490600052602060002090601f016020900481019282601f1061399c57805160ff19168380011785556139ca565b828001600101855582156139ca579182015b828111156139c95782518255916020019190600101906139ae565b5b5090506139d791906139db565b5090565b5b808211156139f45760008160009055506001016139dc565b509056fe608060405234801561001057600080fd5b506040516108ff3803806108ff8339818101604052602081101561003357600080fd5b8101908080519060200190929190505050806000806101000a81548173ffffffffffffffffffffffffffffffffffffffff021916908373ffffffffffffffffffffffffffffffffffffffff1602179055505061086b806100946000396000f3fe6080604052600436106100865760003560e01c80634b449cba116100595780634b449cba1461013d57806391f90157146101685780639cf5453d146101a9578063c937f9fd146101ed578063d57bde791461025257610086565b806312fa6feb1461008b5780632a24f46c146100b857806338af3eed146100cf5780633ccfd60b14610110575b600080fd5b34801561009757600080fd5b506100a061027d565b60405180821515815260200191505060405180910390f35b3480156100c457600080fd5b506100cd610290565b005b3480156100db57600080fd5b506100e4610499565b604051808273ffffffffffffffffffffffffffffffffffffffff16815260200191505060405180910390f35b34801561011c57600080fd5b506101256104bd565b60405180821515815260200191505060405180910390f35b34801561014957600080fd5b506101526105e1565b6040518082815260200191505060405180910390f35b34801561017457600080fd5b5061017d6105e7565b604051808273ffffffffffffffffffffffffffffffffffffffff16815260200191505060405180910390f35b6101eb600480360360208110156101bf57600080fd5b81019080803573ffffffffffffffffffffffffffffffffffffffff16906020019092919050505061060d565b005b3480156101f957600080fd5b5061023c6004803603602081101561021057600080fd5b81019080803573ffffffffffffffffffffffffffffffffffffffff1690602001909291905050506107a0565b6040518082815260200191505060405180910390f35b34801561025e57600080fd5b506102676107e9565b6040518082815260200191505060405180910390f35b600560009054906101000a900460ff1681565b60008054906101000a900473ffffffffffffffffffffffffffffffffffffffff1673ffffffffffffffffffffffffffffffffffffffff163373ffffffffffffffffffffffffffffffffffffffff1614610334576040517f08c379a00000000000000000000000000000000000000000000000000000000081526004018080602001828103825260238152602001806108136023913960400191505060405180910390fd5b600560009054906101000a900460ff161561039a576040517f08c379a00000000000000000000000000000000000000000000000000000000081526004018080602001828103825260238152602001806107f06023913960400191505060405180910390fd5b6001600560006101000a81548160ff0219169083151502179055507fdaec4582d5d9595688c8c98545fdd1c696d41c6aeaeb636737e84ed2f5c00eda600260009054906101000a900473ffffffffffffffffffffffffffffffffffffffff16600354604051808373ffffffffffffffffffffffffffffffffffffffff1681526020018281526020019250505060405180910390a160008054906101000a900473ffffffffffffffffffffffffffffffffffffffff1673ffffffffffffffffffffffffffffffffffffffff166108fc6003549081150290604051600060405180830381858888f19350505050158015610496573d6000803e3d6000fd5b50565b60008054906101000a900473ffffffffffffffffffffffffffffffffffffffff1681565b600080600460003373ffffffffffffffffffffffffffffffffffffffff1673ffffffffffffffffffffffffffffffffffffffff16815260200190815260200160002054905060008111156105d8576000600460003373ffffffffffffffffffffffffffffffffffffffff1673ffffffffffffffffffffffffffffffffffffffff168152602001908152602001600020819055503373ffffffffffffffffffffffffffffffffffffffff166108fc829081150290604051600060405180830381858888f193505050506105d75780600460003373ffffffffffffffffffffffffffffffffffffffff1673ffffffffffffffffffffffffffffffffffffffff1681526020019081526020016000208190555060009150506105de565b5b60019150505b90565b60015481565b600260009054906101000a900473ffffffffffffffffffffffffffffffffffffffff1681565b6003543411610684576040517f08c379a000000000000000000000000000000000000000000000000000000000815260040180806020018281038252601e8152602001807f546865726520616c7265616479206973206120686967686572206269642e000081525060200191505060405180910390fd5b6000600354146107005760035460046000600260009054906101000a900473ffffffffffffffffffffffffffffffffffffffff1673ffffffffffffffffffffffffffffffffffffffff1673ffffffffffffffffffffffffffffffffffffffff168152602001908152602001600020600082825401925050819055505b80600260006101000a81548173ffffffffffffffffffffffffffffffffffffffff021916908373ffffffffffffffffffffffffffffffffffffffff160217905550346003819055507ff4757a49b326036464bec6fe419a4ae38c8a02ce3e68bf0809674f6aab8ad3008134604051808373ffffffffffffffffffffffffffffffffffffffff1681526020018281526020019250505060405180910390a150565b6000600460008373ffffffffffffffffffffffffffffffffffffffff1673ffffffffffffffffffffffffffffffffffffffff168152602001908152602001600020549050919050565b6003548156fe61756374696f6e456e642068617320616c7265616479206265656e2063616c6c65642e596f7520617265206e6f74207468652061756374696f6e2062656e6566696369617279a26469706673582212206d3b304903090ad7cccc6ca2c104c6492cc0dba2bd77c8dea141db8ce2d774d264736f6c634300060c0033456e756d657261626c655365743a20696e646578206f7574206f6620626f756e64734552433732313a207472616e7366657220746f206e6f6e20455243373231526563656976657220696d706c656d656e7465724f776e61626c653a206e6577206f776e657220697320746865207a65726f20616464726573734552433732313a207472616e7366657220746f20746865207a65726f2061646472657373416464726573733a20696e73756666696369656e742062616c616e636520666f722063616c6c4552433732313a206f70657261746f7220717565727920666f72206e6f6e6578697374656e7420746f6b656e4552433732313a20617070726f76652063616c6c6572206973206e6f74206f776e6572206e6f7220617070726f76656420666f7220616c6c4552433732313a2062616c616e636520717565727920666f7220746865207a65726f20616464726573734552433732313a206f776e657220717565727920666f72206e6f6e6578697374656e7420746f6b656e456e756d657261626c654d61703a20696e646578206f7574206f6620626f756e64734552433732313a20617070726f76656420717565727920666f72206e6f6e6578697374656e7420746f6b656e4552433732314d657461646174613a2055524920736574206f66206e6f6e6578697374656e7420746f6b656e4552433732313a207472616e73666572206f6620746f6b656e2074686174206973206e6f74206f776e4552433732314d657461646174613a2055524920717565727920666f72206e6f6e6578697374656e7420746f6b656e4552433732313a20617070726f76616c20746f2063757272656e74206f776e65724552433732313a207472616e736665722063616c6c6572206973206e6f74206f776e6572206e6f7220617070726f766564a2646970667358221220f31ed01273d548d0ff1492e0ae872d84e76b7eec825779edacd399abee6bcdf464736f6c634300060c0033",
  "immutableReferences": {},
  "source": "pragma solidity ^0.6.0;\n\nimport '@openzeppelin/contracts/token/ERC721/ERC721.sol';\nimport '@openzeppelin/contracts/access/Ownable.sol';\nimport \"./MartianAuction.sol\";\n\ncontract MartianMarket is ERC721, Ownable {\n\n    constructor() ERC721(\"MartianMarket\", \"MARS\") public {}\n\n    address payable foundation_address = address(uint160(owner()));\n\n    mapping(uint => MartianAuction) public auctions;\n\n    modifier landRegistered(uint token_id) {\n        require(_exists(token_id), \"Land not registered!\");\n        _;\n    }\n    \n    function getAuction(uint token_id) public view returns(MartianAuction){\n        return auctions[token_id];\n    }\n\n    function createAuction(uint token_id) public onlyOwner {\n        auctions[token_id] = new MartianAuction(msg.sender);\n    }\n\n    function registerLand(string memory uri) public payable onlyOwner {\n        uint _id = totalSupply();\n        _mint(msg.sender, _id);\n        _setTokenURI(_id, uri);\n        createAuction(_id);\n    }\n\n    function endAuction(uint token_id) public onlyOwner landRegistered(token_id) {\n        MartianAuction auction = auctions[token_id];\n        auction.auctionEnd();\n        safeTransferFrom(owner(), auction.highestBidder(), token_id);\n    }\n\n    function getOwner() public view returns (address) {\n        return owner();\n    }\n\n    function auctionEnded(uint token_id) public view returns(bool) {\n        //MartianAuction auction = auctions[token_id];\n        return getAuction(token_id).ended();\n    }\n\n    function highestBid(uint token_id) public view landRegistered(token_id) returns(uint) {\n        //MartianAuction auction = auctions[token_id];\n        return getAuction(token_id).highestBid();\n    }\n\n    function pendingReturn(uint token_id, address sender) public view landRegistered(token_id) returns(uint) {\n        //MartianAuction auction = auctions[token_id];\n        return getAuction(token_id).pendingReturn(sender);\n    }\n\n    function bid(uint token_id) public payable landRegistered(token_id) {\n        //MartianAuction auction = auctions[token_id];\n        getAuction(token_id).bid.value(msg.value)(msg.sender);\n    }\n\n}\n",
  "sourcePath": "/Users/hemanglunagaria/Documents/Monash_FinTech_repos/martian-market/martian-market/contracts/MartianMarket.sol",
  "compiler": {
    "name": "solc",
    "version": "0.6.12+commit.27d51765.Emscripten.clang"
  },
  "schemaVersion": "3.4.3",
  "updatedAt": "2021-10-17T09:04:53.648Z",
  "networkType": "ethereum",
  "devdoc": {
    "kind": "dev",
    "methods": {
      "approve(address,uint256)": {
        "details": "See {IERC721-approve}."
      },
      "balanceOf(address)": {
        "details": "See {IERC721-balanceOf}."
      },
      "baseURI()": {
        "details": "Returns the base URI set via {_setBaseURI}. This will be automatically added as a prefix in {tokenURI} to each token's URI, or to the token ID if no specific URI is set for that token ID."
      },
      "getApproved(uint256)": {
        "details": "See {IERC721-getApproved}."
      },
      "isApprovedForAll(address,address)": {
        "details": "See {IERC721-isApprovedForAll}."
      },
      "name()": {
        "details": "See {IERC721Metadata-name}."
      },
      "owner()": {
        "details": "Returns the address of the current owner."
      },
      "ownerOf(uint256)": {
        "details": "See {IERC721-ownerOf}."
      },
      "renounceOwnership()": {
        "details": "Leaves the contract without owner. It will not be possible to call `onlyOwner` functions anymore. Can only be called by the current owner. NOTE: Renouncing ownership will leave the contract without an owner, thereby removing any functionality that is only available to the owner."
      },
      "safeTransferFrom(address,address,uint256)": {
        "details": "See {IERC721-safeTransferFrom}."
      },
      "safeTransferFrom(address,address,uint256,bytes)": {
        "details": "See {IERC721-safeTransferFrom}."
      },
      "setApprovalForAll(address,bool)": {
        "details": "See {IERC721-setApprovalForAll}."
      },
      "supportsInterface(bytes4)": {
        "details": "See {IERC165-supportsInterface}. Time complexity O(1), guaranteed to always use less than 30 000 gas."
      },
      "symbol()": {
        "details": "See {IERC721Metadata-symbol}."
      },
      "tokenByIndex(uint256)": {
        "details": "See {IERC721Enumerable-tokenByIndex}."
      },
      "tokenOfOwnerByIndex(address,uint256)": {
        "details": "See {IERC721Enumerable-tokenOfOwnerByIndex}."
      },
      "tokenURI(uint256)": {
        "details": "See {IERC721Metadata-tokenURI}."
      },
      "totalSupply()": {
        "details": "See {IERC721Enumerable-totalSupply}."
      },
      "transferFrom(address,address,uint256)": {
        "details": "See {IERC721-transferFrom}."
      },
      "transferOwnership(address)": {
        "details": "Transfers ownership of the contract to a new account (`newOwner`). Can only be called by the current owner."
      }
    },
    "version": 1
  },
  "userdoc": {
    "kind": "user",
    "methods": {},
    "version": 1
  }
}